{
  "_format": "hh-sol-artifact-1",
  "contractName": "ERC721Token",
  "sourceName": "contracts/ERC721Token.sol",
  "abi": [
    {
      "inputs": [],
      "stateMutability": "nonpayable",
      "type": "constructor"
    },
    {
      "anonymous": false,
      "inputs": [
        {
          "indexed": true,
          "internalType": "address",
          "name": "_owner",
          "type": "address"
        },
        {
          "indexed": true,
          "internalType": "address",
          "name": "_approved",
          "type": "address"
        },
        {
          "indexed": true,
          "internalType": "uint256",
          "name": "_tokenId",
          "type": "uint256"
        }
      ],
      "name": "Approval",
      "type": "event"
    },
    {
      "anonymous": false,
      "inputs": [
        {
          "indexed": true,
          "internalType": "address",
          "name": "_owner",
          "type": "address"
        },
        {
          "indexed": true,
          "internalType": "address",
          "name": "_operator",
          "type": "address"
        },
        {
          "indexed": false,
          "internalType": "bool",
          "name": "_approved",
          "type": "bool"
        }
      ],
      "name": "ApprovalForAll",
      "type": "event"
    },
    {
      "anonymous": false,
      "inputs": [
        {
          "indexed": true,
          "internalType": "address",
          "name": "_from",
          "type": "address"
        },
        {
          "indexed": true,
          "internalType": "address",
          "name": "_to",
          "type": "address"
        },
        {
          "indexed": true,
          "internalType": "uint256",
          "name": "_tokenId",
          "type": "uint256"
        }
      ],
      "name": "Transfer",
      "type": "event"
    },
    {
      "inputs": [
        {
          "internalType": "address",
          "name": "_approved",
          "type": "address"
        },
        {
          "internalType": "uint256",
          "name": "_tokenId",
          "type": "uint256"
        }
      ],
      "name": "approve",
      "outputs": [],
      "stateMutability": "payable",
      "type": "function"
    },
    {
      "inputs": [
        {
          "internalType": "address",
          "name": "_owner",
          "type": "address"
        }
      ],
      "name": "balanceOf",
      "outputs": [
        {
          "internalType": "uint256",
          "name": "",
          "type": "uint256"
        }
      ],
      "stateMutability": "view",
      "type": "function"
    },
    {
      "inputs": [
        {
          "internalType": "uint256",
          "name": "_tokenId",
          "type": "uint256"
        }
      ],
      "name": "getApproved",
      "outputs": [
        {
          "internalType": "address",
          "name": "",
          "type": "address"
        }
      ],
      "stateMutability": "view",
      "type": "function"
    },
    {
      "inputs": [
        {
          "internalType": "address",
          "name": "_owner",
          "type": "address"
        },
        {
          "internalType": "address",
          "name": "_operator",
          "type": "address"
        }
      ],
      "name": "isApprovedForAll",
      "outputs": [
        {
          "internalType": "bool",
          "name": "",
          "type": "bool"
        }
      ],
      "stateMutability": "view",
      "type": "function"
    },
    {
      "inputs": [],
      "name": "mint",
      "outputs": [],
      "stateMutability": "nonpayable",
      "type": "function"
    },
    {
      "inputs": [],
      "name": "nextTokenId",
      "outputs": [
        {
          "internalType": "uint256",
          "name": "",
          "type": "uint256"
        }
      ],
      "stateMutability": "view",
      "type": "function"
    },
    {
      "inputs": [
        {
          "internalType": "uint256",
          "name": "_tokenId",
          "type": "uint256"
        }
      ],
      "name": "ownerOf",
      "outputs": [
        {
          "internalType": "address",
          "name": "",
          "type": "address"
        }
      ],
      "stateMutability": "view",
      "type": "function"
    },
    {
      "inputs": [
        {
          "internalType": "address",
          "name": "_from",
          "type": "address"
        },
        {
          "internalType": "address",
          "name": "_to",
          "type": "address"
        },
        {
          "internalType": "uint256",
          "name": "_tokenId",
          "type": "uint256"
        }
      ],
      "name": "safeTransferFrom",
      "outputs": [],
      "stateMutability": "payable",
      "type": "function"
    },
    {
      "inputs": [
        {
          "internalType": "address",
          "name": "_from",
          "type": "address"
        },
        {
          "internalType": "address",
          "name": "_to",
          "type": "address"
        },
        {
          "internalType": "uint256",
          "name": "_tokenId",
          "type": "uint256"
        },
        {
          "internalType": "bytes",
          "name": "data",
          "type": "bytes"
        }
      ],
      "name": "safeTransferFrom",
      "outputs": [],
      "stateMutability": "payable",
      "type": "function"
    },
    {
      "inputs": [
        {
          "internalType": "address",
          "name": "_operator",
          "type": "address"
        },
        {
          "internalType": "bool",
          "name": "_approved",
          "type": "bool"
        }
      ],
      "name": "setApprovalForAll",
      "outputs": [],
      "stateMutability": "nonpayable",
      "type": "function"
    },
    {
      "inputs": [
        {
          "internalType": "address",
          "name": "_from",
          "type": "address"
        },
        {
          "internalType": "address",
          "name": "_to",
          "type": "address"
        },
        {
          "internalType": "uint256",
          "name": "_tokenId",
          "type": "uint256"
        }
      ],
      "name": "transferFrom",
      "outputs": [],
      "stateMutability": "payable",
      "type": "function"
    }
  ],
  "bytecode": "0x608060405234801561001057600080fd5b506113c6806100206000396000f3fe60806040526004361061009c5760003560e01c80636352211e116100645780636352211e1461014957806370a082311461018657806375794a3c146101c3578063a22cb465146101ee578063b88d4fde14610217578063e985e9c5146102335761009c565b8063081812fc146100a1578063095ea7b3146100de5780631249c58b146100fa57806323b872dd1461011157806342842e0e1461012d575b600080fd5b3480156100ad57600080fd5b506100c860048036038101906100c39190610c67565b610270565b6040516100d59190610cd5565b60405180910390f35b6100f860048036038101906100f39190610d1c565b6102ad565b005b34801561010657600080fd5b5061010f610405565b005b61012b60048036038101906101269190610d5c565b610525565b005b61014760048036038101906101429190610d5c565b610535565b005b34801561015557600080fd5b50610170600480360381019061016b9190610c67565b610555565b60405161017d9190610cd5565b60405180910390f35b34801561019257600080fd5b506101ad60048036038101906101a89190610daf565b610592565b6040516101ba9190610deb565b60405180910390f35b3480156101cf57600080fd5b506101d86105da565b6040516101e59190610deb565b60405180910390f35b3480156101fa57600080fd5b5061021560048036038101906102109190610e3e565b6105e0565b005b610231600480360381019061022c9190610ee3565b6106dd565b005b34801561023f57600080fd5b5061025a60048036038101906102559190610f6b565b610734565b6040516102679190610fba565b60405180910390f35b60006002600083815260200190815260200160002060009054906101000a900473ffffffffffffffffffffffffffffffffffffffff169050919050565b60006001600083815260200190815260200160002060009054906101000a900473ffffffffffffffffffffffffffffffffffffffff1690508073ffffffffffffffffffffffffffffffffffffffff163373ffffffffffffffffffffffffffffffffffffffff1614610353576040517f08c379a000000000000000000000000000000000000000000000000000000000815260040161034a90611032565b60405180910390fd5b826002600084815260200190815260200160002060006101000a81548173ffffffffffffffffffffffffffffffffffffffff021916908373ffffffffffffffffffffffffffffffffffffffff160217905550818373ffffffffffffffffffffffffffffffffffffffff168273ffffffffffffffffffffffffffffffffffffffff167f8c5be1e5ebec7d5bd14f71427d1e84f3dd0314c0f7b2291e5b200ac8c7c3b92560405160405180910390a4505050565b6000803373ffffffffffffffffffffffffffffffffffffffff1673ffffffffffffffffffffffffffffffffffffffff168152602001908152602001600020600081548092919061045490611081565b91905055503360016000600454815260200190815260200160002060006101000a81548173ffffffffffffffffffffffffffffffffffffffff021916908373ffffffffffffffffffffffffffffffffffffffff1602179055506004543373ffffffffffffffffffffffffffffffffffffffff16600073ffffffffffffffffffffffffffffffffffffffff167fddf252ad1be2c89b69c2b068fc378daa952ba7f163c4a11628f55a4df523b3ef60405160405180910390a46004600081548092919061051e90611081565b9190505550565b6105308383836107c8565b505050565b61055083838360405180602001604052806000815250610ad0565b505050565b60006001600083815260200190815260200160002060009054906101000a900473ffffffffffffffffffffffffffffffffffffffff169050919050565b60008060008373ffffffffffffffffffffffffffffffffffffffff1673ffffffffffffffffffffffffffffffffffffffff168152602001908152602001600020549050919050565b60045481565b80600360003373ffffffffffffffffffffffffffffffffffffffff1673ffffffffffffffffffffffffffffffffffffffff16815260200190815260200160002060008473ffffffffffffffffffffffffffffffffffffffff1673ffffffffffffffffffffffffffffffffffffffff16815260200190815260200160002060006101000a81548160ff0219169083151502179055508173ffffffffffffffffffffffffffffffffffffffff163373ffffffffffffffffffffffffffffffffffffffff167f17307eab39ab6107e8899845ad3d59bd9653f200f220920489ca2b5937696c31836040516106d19190610fba565b60405180910390a35050565b61072d85858585858080601f016020809104026020016040519081016040528093929190818152602001838380828437600081840152601f19601f82011690508083019250505050505050610ad0565b5050505050565b6000600360008473ffffffffffffffffffffffffffffffffffffffff1673ffffffffffffffffffffffffffffffffffffffff16815260200190815260200160002060008373ffffffffffffffffffffffffffffffffffffffff1673ffffffffffffffffffffffffffffffffffffffff16815260200190815260200160002060009054906101000a900460ff16905092915050565b8060006001600083815260200190815260200160002060009054906101000a900473ffffffffffffffffffffffffffffffffffffffff1690503373ffffffffffffffffffffffffffffffffffffffff168173ffffffffffffffffffffffffffffffffffffffff16148061089957503373ffffffffffffffffffffffffffffffffffffffff166002600084815260200190815260200160002060009054906101000a900473ffffffffffffffffffffffffffffffffffffffff1673ffffffffffffffffffffffffffffffffffffffff16145b80610931575060011515600360008373ffffffffffffffffffffffffffffffffffffffff1673ffffffffffffffffffffffffffffffffffffffff16815260200190815260200160002060003373ffffffffffffffffffffffffffffffffffffffff1673ffffffffffffffffffffffffffffffffffffffff16815260200190815260200160002060009054906101000a900460ff161515145b610970576040517f08c379a000000000000000000000000000000000000000000000000000000000815260040161096790611115565b60405180910390fd5b60016000808773ffffffffffffffffffffffffffffffffffffffff1673ffffffffffffffffffffffffffffffffffffffff16815260200190815260200160002060008282546109bf9190611135565b9250508190555060016000808673ffffffffffffffffffffffffffffffffffffffff1673ffffffffffffffffffffffffffffffffffffffff1681526020019081526020016000206000828254610a159190611169565b92505081905550836001600085815260200190815260200160002060006101000a81548173ffffffffffffffffffffffffffffffffffffffff021916908373ffffffffffffffffffffffffffffffffffffffff160217905550828473ffffffffffffffffffffffffffffffffffffffff168673ffffffffffffffffffffffffffffffffffffffff167fddf252ad1be2c89b69c2b068fc378daa952ba7f163c4a11628f55a4df523b3ef60405160405180910390a45050505050565b610adb8484846107c8565b610afa8373ffffffffffffffffffffffffffffffffffffffff16610c14565b15610c0e5760008373ffffffffffffffffffffffffffffffffffffffff1663150b7a02338786866040518563ffffffff1660e01b8152600401610b40949392919061122d565b6020604051808303816000875af1158015610b5f573d6000803e3d6000fd5b505050506040513d601f19601f82011682018060405250810190610b8391906112d1565b905063150b7a0260e01b7bffffffffffffffffffffffffffffffffffffffffffffffffffffffff1916817bffffffffffffffffffffffffffffffffffffffffffffffffffffffff191614610c0c576040517f08c379a0000000000000000000000000000000000000000000000000000000008152600401610c0390611370565b60405180910390fd5b505b50505050565b600080823b905060008111915050919050565b600080fd5b600080fd5b6000819050919050565b610c4481610c31565b8114610c4f57600080fd5b50565b600081359050610c6181610c3b565b92915050565b600060208284031215610c7d57610c7c610c27565b5b6000610c8b84828501610c52565b91505092915050565b600073ffffffffffffffffffffffffffffffffffffffff82169050919050565b6000610cbf82610c94565b9050919050565b610ccf81610cb4565b82525050565b6000602082019050610cea6000830184610cc6565b92915050565b610cf981610cb4565b8114610d0457600080fd5b50565b600081359050610d1681610cf0565b92915050565b60008060408385031215610d3357610d32610c27565b5b6000610d4185828601610d07565b9250506020610d5285828601610c52565b9150509250929050565b600080600060608486031215610d7557610d74610c27565b5b6000610d8386828701610d07565b9350506020610d9486828701610d07565b9250506040610da586828701610c52565b9150509250925092565b600060208284031215610dc557610dc4610c27565b5b6000610dd384828501610d07565b91505092915050565b610de581610c31565b82525050565b6000602082019050610e006000830184610ddc565b92915050565b60008115159050919050565b610e1b81610e06565b8114610e2657600080fd5b50565b600081359050610e3881610e12565b92915050565b60008060408385031215610e5557610e54610c27565b5b6000610e6385828601610d07565b9250506020610e7485828601610e29565b9150509250929050565b600080fd5b600080fd5b600080fd5b60008083601f840112610ea357610ea2610e7e565b5b8235905067ffffffffffffffff811115610ec057610ebf610e83565b5b602083019150836001820283011115610edc57610edb610e88565b5b9250929050565b600080600080600060808688031215610eff57610efe610c27565b5b6000610f0d88828901610d07565b9550506020610f1e88828901610d07565b9450506040610f2f88828901610c52565b935050606086013567ffffffffffffffff811115610f5057610f4f610c2c565b5b610f5c88828901610e8d565b92509250509295509295909350565b60008060408385031215610f8257610f81610c27565b5b6000610f9085828601610d07565b9250506020610fa185828601610d07565b9150509250929050565b610fb481610e06565b82525050565b6000602082019050610fcf6000830184610fab565b92915050565b600082825260208201905092915050565b7f4e6f7420617574686f72697a6564000000000000000000000000000000000000600082015250565b600061101c600e83610fd5565b915061102782610fe6565b602082019050919050565b6000602082019050818103600083015261104b8161100f565b9050919050565b7f4e487b7100000000000000000000000000000000000000000000000000000000600052601160045260246000fd5b600061108c82610c31565b91507fffffffffffffffffffffffffffffffffffffffffffffffffffffffffffffffff82036110be576110bd611052565b5b600182019050919050565b7f5472616e73666572206e6f7420617574686f72697a6564000000000000000000600082015250565b60006110ff601783610fd5565b915061110a826110c9565b602082019050919050565b6000602082019050818103600083015261112e816110f2565b9050919050565b600061114082610c31565b915061114b83610c31565b925082820390508181111561116357611162611052565b5b92915050565b600061117482610c31565b915061117f83610c31565b925082820190508082111561119757611196611052565b5b92915050565b600081519050919050565b600082825260208201905092915050565b60005b838110156111d75780820151818401526020810190506111bc565b60008484015250505050565b6000601f19601f8301169050919050565b60006111ff8261119d565b61120981856111a8565b93506112198185602086016111b9565b611222816111e3565b840191505092915050565b60006080820190506112426000830187610cc6565b61124f6020830186610cc6565b61125c6040830185610ddc565b818103606083015261126e81846111f4565b905095945050505050565b60007fffffffff0000000000000000000000000000000000000000000000000000000082169050919050565b6112ae81611279565b81146112b957600080fd5b50565b6000815190506112cb816112a5565b92915050565b6000602082840312156112e7576112e6610c27565b5b60006112f5848285016112bc565b91505092915050565b7f726563697069656e7420536d61727420436f6e74726163742063616e6e6f742060008201527f68616e646c652045524337323120746f6b656e73000000000000000000000000602082015250565b600061135a603483610fd5565b9150611365826112fe565b604082019050919050565b600060208201905081810360008301526113898161134d565b905091905056fea2646970667358221220df17ee0f5b838ca29954143e6371a34e4ff5b451c3a7f43f2e0b1a4958ba2f4d64736f6c63430008110033",
  "linkReferences": {},
  "deployedLinkReferences": {}
}